:100000000C9458000C9480000C9480000C94800098
:100010000C9480000C9480000C9480000C94800060
:100020000C9480000C9480000C9480000C94800050
:100030000C9480000C9480000C9480000C94800040
:100040000C941D040C9480000C9480000C9480008F
:100050000C9480000C9480000C9480000C94800020
:100060000C9467040C948000000000002500280018
:100070002B00040404040404040402020202020229
:10008000030303030303010204081020408001025C
:1000900004081020010204081020000000080002DB
:1000A00001000003040700000000000000008605B6
:1000B00011241FBECFEFD8E0DEBFCDBF11E0A0E01E
:1000C000B1E0E2E2FCE002C005900D92AC32B10773
:1000D000D9F722E0ACE2B1E001C01D92A730B2072F
:1000E000E1F710E0C8E5D0E004C02197FE010E94CE
:1000F0000906C735D107C9F70E94A5050C940F065C
:100100000C94000008950895AF92BF92CF92DF92B1
:10011000EF92FF920F931F93CF93DF936C017B01BC
:100120008B01040F151FEB015E01AE18BF08C0174D
:10013000D10759F06991D601ED91FC910190F081C0
:10014000E02DC6010995892B79F7C501DF91CF9183
:100150001F910F91FF90EF90DF90CF90BF90AF90E5
:10016000089590E0FC01E656FF4F2491FC01EA5708
:10017000FF4F3491FC01EE58FF4FE491EE23C9F09C
:10018000222339F0233001F1A8F4213019F1223073
:1001900029F1F0E0EE0FFF1FE859FF4FA591B49150
:1001A0008FB7F894EC91611126C030953E233C93B3
:1001B0008FBF08952730A9F02830C9F0243049F7BF
:1001C000809180008F7D03C0809180008F77809325
:1001D0008000DFCF84B58F7784BDDBCF84B58F7D82
:1001E000FBCF8091B0008F778093B000D2CF809109
:1001F000B0008F7DF9CF3E2BDACF3FB7F8948091D6
:10020000E3019091E401A091E501B091E60126B5EA
:10021000A89B05C02F3F19F00196A11DB11D3FBF3E
:10022000BA2FA92F982F8827BC01CD01620F711D0D
:10023000811D911D42E0660F771F881F991F4A9507
:10024000D1F708958F929F92AF92BF92CF92DF9293
:10025000EF92FF924B015C010E94FD006B017C015B
:100260000E94FD006C197D098E099F09683E73404C
:1002700081059105A8F321E0821A9108A108B1082F
:1002800088EEC80E83E0D81EE11CF11C8114910495
:10029000A104B10429F7FF90EF90DF90CF90BF90B9
:1002A000AF909F908F900895089520916D01260F33
:1002B0003327331F21323105ECF42091B601FC01C4
:1002C00090E080E0243069F082E00895A0916D0113
:1002D0002191AC01435B5E4FA40FB52FB11D2C9350
:1002E0000196861798F380916D01680F60936D01F8
:1002F00080E0089581E008951092B60181E0809336
:10030000B5011092900161E082E10E94B10061E0CC
:1003100083E10E94B100E9EBF0E080818E7F808371
:1003200080818D7F808388E48093B80085E480930A
:10033000BC000895CF93DF9391E090934C01882304
:10034000B9F0C091B800D091BA008091BC008A7B0E
:100350008093BC0060E082E10E94B10060E083E134
:100360000E94B1000E947C01D093BA00C093B800F3
:10037000DF91CF9108950895E091EE018091ED0114
:10038000E81730F4F0E0E45DFE4F808190E00895DE
:100390008FEF9FEF08959091EE018091ED012FEF87
:1003A0003FEF981748F4E92FF0E0E45DFE4F20811D
:1003B00030E09F5F9093EE01C90108958091ED01B7
:1003C0009091EE01891B990B0895CF92DF92EF92E5
:1003D000FF920F931F93CF93DF937C01CB018A0190
:1003E0002091BC01222389F0EB016B01C40ED51EC4
:1003F000CC15DD0569F06991D701ED91FC91019073
:10040000F081E02DC7010995F3CF642F0E945501BB
:10041000C801DF91CF911F910F91FF90EF90DF9076
:10042000CF900895CF93DF931F92CDB7DEB7698346
:100430002091BC012223F9F02091EB01203258F0E9
:1004400021E030E0FC013383228390E080E00F90D4
:10045000DF91CF9108958091EC01E82FF0E0E35413
:10046000FE4F998190838F5F8093EC018093EB0125
:1004700081E090E0ECCF61E0CE0101960E94550151
:10048000F7CFCF92DF92EF92FF920F931F93CF930C
:10049000DF93FC01C48121E02093BC01C093DD0106
:1004A0001092EC011092EB018385682B8FEE91E0A6
:1004B0000E941202D091EB01D13208F092C00E944A
:1004C000FD006B017C018091B601811165C082E065
:1004D0008093B60181E08093B5018FEF8093B401E2
:1004E0001092B301D093B201ADEBB1E0E2E9F1E0DB
:1004F00080E0D81385C01092910180919101CC0FBA
:10050000C82BC093910180919001813009F07CC08B
:10051000109290010E94FD006B017C01809191017D
:100520008093BB008091B8019091B901A091BA016C
:10053000B091BB01892B8A2B8B2B99F00E94FD0077
:100540000091B8011091B9012091BA013091BB011D
:100550006C197D098E099F090617170728073907A7
:10056000E0F18091BC0083FDD9CF85EC8093BC0085
:100570000E94FD006B017C018091B601823009F47C
:1005800045C08091B4018F3F61F18091B401803208
:1005900041F18091B40125C08091B8019091B901D9
:1005A000A091BA01B091BB01892B8A2B8B2B09F446
:1005B0008ACF0E94FD000091B8011091B9012091ED
:1005C000BA013091BB016C197D098E099F0906178C
:1005D00017072807390708F076CF8091B7010E94E6
:1005E0009A011092EC011092EB011092BC01DF9184
:1005F000CF911F910F91FF90EF90DF90CF900895D2
:100600009D9191938F5F75CF85EEB0CF8091B801AA
:100610009091B901A091BA01B091BB01892B8A2BAD
:100620008B2B09F4A9CF0E94FD000091B801109115
:10063000B9012091BA013091BB016C197D098E0975
:100640009F09061717072807390708F095CFC5CF68
:1006500090E080E008950F931F93CF938C01C62FF5
:100660000E9441026C2F6460C8010E9441026C2FFD
:100670006B7FC8010E94410283EC90E00197F1F783
:10068000CF911F910F9108950F931F93CF93DF93F5
:100690008C01D62FC42F607F642B0E942B0380E136
:1006A000D89FB00111246C2BC801DF91CF911F910D
:1006B0000F910C942B03CF93DF931092EE011092C5
:1006C000ED011092EC011092EB010E947C0182E896
:1006D00090E09093EA018093E90183E890E09093A1
:1006E000E8018093E70110920002809105028230B8
:1006F00018F098E0909300028093030262E370E0A8
:1007000080E090E00E942201609106028BEF91E070
:100710000E94410268EE73E080E090E00E942201B6
:1007200060E38BEF91E00E942B03CBE4D6E4CE0193
:100730000197F1F760E38BEF91E00E942B03219783
:10074000F1F760E38BEF91E00E942B0383E592E0E9
:100750000197F1F760E28BEF91E00E942B0360912B
:100760000002606240E08BEF91E00E94440384E06D
:100770008093010240E06CE08BEF91E00E94440323
:1007800040E061E08BEF91E00E944403CBE3DFE1C6
:10079000CE010197F1F782E08093020240E066E02B
:1007A0008BEF91E00E94440340E062E08BEF91E028
:1007B0000E9444032197F1F7DF91CF91089541E022
:1007C0000E94440381E090E0089585ED8093BC0091
:1007D0008091B8019091B901A091BA01B091BB018B
:1007E0000796A11DB11D23E0B695A795979587950E
:1007F0002A95D1F72091BC0024FD03C01092B601C8
:1008000008954091B8015091B9016091BA01709179
:10081000BB01452B462B472B69F30097A105B1057A
:1008200041F025E32A95F1F700000197A109B109EC
:10083000E1CF8091B7010C949A011F920F920FB6ED
:100840000F9211242F933F938F939F93AF93BF9356
:100850008091DF019091E001A091E101B091E2016E
:100860003091DE0123E0230F2D3758F50196A11DAD
:10087000B11D2093DE018093DF019093E001A093EE
:10088000E101B093E2018091E3019091E401A09134
:10089000E501B091E6010196A11DB11D8093E30130
:1008A0009093E401A093E501B093E601BF91AF916D
:1008B0009F918F913F912F910F900FBE0F901F909E
:1008C000189526E8230F0296A11DB11DD2CF1F92C5
:1008D0000F920FB60F9211242F933F934F935F9374
:1008E0006F937F938F939F93AF93BF93EF93FF93F8
:1008F0008091B900887F803609F44AC0F0F58832CB
:1009000009F4A7C018F5803109F49BC0B8F4882316
:1009100009F4F9C0883009F494C0FF91EF91BF91B8
:10092000AF919F918F917F916F915F914F913F9187
:100930002F910F900FBE0F901F901895883109F4DA
:1009400088C0803251F78093B40114C0803409F418
:100950009DC040F48033B9F38833F9F68093B40135
:1009600085ECB0C0803509F485C0883509F496C09F
:10097000883499F60E94E503D0CF883909F48CC0F9
:1009800038F5883729F050F4883611F0803729F689
:1009900083E08093B60110928F0157C0883809F424
:1009A0007BC0803919F0803809F0B7CF80918F0172
:1009B000803208F071C0E0918F0181E08E0F80934A
:1009C0008F018091BB00F0E0E159FE4F80833DC074
:1009D000803B39F0E0F4803A09F479C0883A09F0B4
:1009E0009CCF84E08093B60110926E0110926D014D
:1009F000E091E901F091EA01099580916D01811181
:100A00000FC081E080936D0110924D0109C0803CC0
:100A100009F4A6CF883C09F4A3CF883B09F07DCF29
:100A2000E0916E0181E08E0F80936E01F0E0E35B58
:100A3000FE4F80818093BB0090916E0180916D018B
:100A400029C0809191018093BB0085EC8093BC000C
:100A500064CF9091B3018091B201981758F5E0915D
:100A6000B30181E08E0F8093B301F0E0EE56FE4FAC
:100A70008081E9CFE091B30181E08E0F8093B301D3
:100A80008091BB00F0E0EE56FE4F80839091B30161
:100A90008091B2019817C8F285E8D8CFE091B301F0
:100AA00081E08E0F8093B3018091BB00F0E0EE56A1
:100AB000FE4F80838091B50181115CCF81E08093EE
:100AC000900184EA8093BC001092B60126CF85EC99
:100AD0008093BC001092B60180918F01803230F477
:100AE000E0918F01F0E0E159FE4F108260918F019B
:100AF00070E0E091E701F091E8018FE691E009955F
:100B000010928F010ACF1092B40134CFEFEEF1E0D2
:100B10001382128288EE93E0A0E0B0E08483958394
:100B2000A683B78384E091E091838083EBEFF1E0CB
:100B30001382128286E191E091838083148280E1A6
:100B4000818782E0828713860895789484B58260D5
:100B500084BD84B5816084BD85B5826085BD85B561
:100B6000816085BD80916E00816080936E001092DF
:100B7000810080918100826080938100809181005A
:100B800081608093810080918000816080938000EB
:100B90008091B10084608093B1008091B000816049
:100BA0008093B00080917A00846080937A00809175
:100BB0007A00826080937A0080917A0081608093CD
:100BC0007A0080917A00806880937A001092C10048
:100BD0000E945B030E945B0388E08093060260E052
:100BE0008BEF91E00E94410240E063E88BEF91E0DF
:100BF0000E9444034DE050E06EE171E08BEF91E024
:100C00000E948400C0E0D0E02097F1F30E94000031
:100C1000FBCFEE0FFF1F0590F491E02D0994F8949F
:020C2000FFCF04
:100C2200000000001202E5012803BB01DE01CB0136
:100C3200BC0100000000DF03840028035401486562
:0C0C42006C6C6F2C20776F726C642100CA
:00000001FF
